{
  "_format": "hh-sol-artifact-1",
  "contractName": "SSVClusters",
  "sourceName": "contracts/modules/SSVClusters.sol",
  "abi": [
    {
      "inputs": [],
      "name": "ApprovalNotWithinTimeframe",
      "type": "error"
    },
    {
      "inputs": [],
      "name": "CallerNotOwner",
      "type": "error"
    },
    {
      "inputs": [],
      "name": "CallerNotWhitelisted",
      "type": "error"
    },
    {
      "inputs": [],
      "name": "ClusterAlreadyEnabled",
      "type": "error"
    },
    {
      "inputs": [],
      "name": "ClusterDoesNotExists",
      "type": "error"
    },
    {
      "inputs": [],
      "name": "ClusterIsLiquidated",
      "type": "error"
    },
    {
      "inputs": [],
      "name": "ClusterNotLiquidatable",
      "type": "error"
    },
    {
      "inputs": [],
      "name": "ExceedValidatorLimit",
      "type": "error"
    },
    {
      "inputs": [],
      "name": "FeeExceedsIncreaseLimit",
      "type": "error"
    },
    {
      "inputs": [],
      "name": "FeeIncreaseNotAllowed",
      "type": "error"
    },
    {
      "inputs": [],
      "name": "FeeTooHigh",
      "type": "error"
    },
    {
      "inputs": [],
      "name": "FeeTooLow",
      "type": "error"
    },
    {
      "inputs": [],
      "name": "IncorrectClusterState",
      "type": "error"
    },
    {
      "inputs": [],
      "name": "IncorrectValidatorState",
      "type": "error"
    },
    {
      "inputs": [],
      "name": "InsufficientBalance",
      "type": "error"
    },
    {
      "inputs": [],
      "name": "InvalidOperatorIdsLength",
      "type": "error"
    },
    {
      "inputs": [],
      "name": "InvalidPublicKeyLength",
      "type": "error"
    },
    {
      "inputs": [],
      "name": "MaxValueExceeded",
      "type": "error"
    },
    {
      "inputs": [],
      "name": "NewBlockPeriodIsBelowMinimum",
      "type": "error"
    },
    {
      "inputs": [],
      "name": "NoFeeDeclared",
      "type": "error"
    },
    {
      "inputs": [],
      "name": "NotAuthorized",
      "type": "error"
    },
    {
      "inputs": [],
      "name": "OperatorAlreadyExists",
      "type": "error"
    },
    {
      "inputs": [],
      "name": "OperatorDoesNotExist",
      "type": "error"
    },
    {
      "inputs": [],
      "name": "OperatorsListNotUnique",
      "type": "error"
    },
    {
      "inputs": [],
      "name": "SameFeeChangeNotAllowed",
      "type": "error"
    },
    {
      "inputs": [],
      "name": "TargetModuleDoesNotExist",
      "type": "error"
    },
    {
      "inputs": [],
      "name": "TokenTransferFailed",
      "type": "error"
    },
    {
      "inputs": [],
      "name": "UnsortedOperatorsList",
      "type": "error"
    },
    {
      "inputs": [],
      "name": "ValidatorAlreadyExists",
      "type": "error"
    },
    {
      "inputs": [],
      "name": "ValidatorDoesNotExist",
      "type": "error"
    },
    {
      "anonymous": false,
      "inputs": [
        {
          "indexed": true,
          "internalType": "address",
          "name": "owner",
          "type": "address"
        },
        {
          "indexed": false,
          "internalType": "uint64[]",
          "name": "operatorIds",
          "type": "uint64[]"
        },
        {
          "indexed": false,
          "internalType": "uint256",
          "name": "value",
          "type": "uint256"
        },
        {
          "components": [
            {
              "internalType": "uint32",
              "name": "validatorCount",
              "type": "uint32"
            },
            {
              "internalType": "uint64",
              "name": "networkFeeIndex",
              "type": "uint64"
            },
            {
              "internalType": "uint64",
              "name": "index",
              "type": "uint64"
            },
            {
              "internalType": "bool",
              "name": "active",
              "type": "bool"
            },
            {
              "internalType": "uint256",
              "name": "balance",
              "type": "uint256"
            }
          ],
          "indexed": false,
          "internalType": "struct ISSVNetworkCore.Cluster",
          "name": "cluster",
          "type": "tuple"
        }
      ],
      "name": "ClusterDeposited",
      "type": "event"
    },
    {
      "anonymous": false,
      "inputs": [
        {
          "indexed": true,
          "internalType": "address",
          "name": "owner",
          "type": "address"
        },
        {
          "indexed": false,
          "internalType": "uint64[]",
          "name": "operatorIds",
          "type": "uint64[]"
        },
        {
          "components": [
            {
              "internalType": "uint32",
              "name": "validatorCount",
              "type": "uint32"
            },
            {
              "internalType": "uint64",
              "name": "networkFeeIndex",
              "type": "uint64"
            },
            {
              "internalType": "uint64",
              "name": "index",
              "type": "uint64"
            },
            {
              "internalType": "bool",
              "name": "active",
              "type": "bool"
            },
            {
              "internalType": "uint256",
              "name": "balance",
              "type": "uint256"
            }
          ],
          "indexed": false,
          "internalType": "struct ISSVNetworkCore.Cluster",
          "name": "cluster",
          "type": "tuple"
        }
      ],
      "name": "ClusterLiquidated",
      "type": "event"
    },
    {
      "anonymous": false,
      "inputs": [
        {
          "indexed": true,
          "internalType": "address",
          "name": "owner",
          "type": "address"
        },
        {
          "indexed": false,
          "internalType": "uint64[]",
          "name": "operatorIds",
          "type": "uint64[]"
        },
        {
          "components": [
            {
              "internalType": "uint32",
              "name": "validatorCount",
              "type": "uint32"
            },
            {
              "internalType": "uint64",
              "name": "networkFeeIndex",
              "type": "uint64"
            },
            {
              "internalType": "uint64",
              "name": "index",
              "type": "uint64"
            },
            {
              "internalType": "bool",
              "name": "active",
              "type": "bool"
            },
            {
              "internalType": "uint256",
              "name": "balance",
              "type": "uint256"
            }
          ],
          "indexed": false,
          "internalType": "struct ISSVNetworkCore.Cluster",
          "name": "cluster",
          "type": "tuple"
        }
      ],
      "name": "ClusterReactivated",
      "type": "event"
    },
    {
      "anonymous": false,
      "inputs": [
        {
          "indexed": true,
          "internalType": "address",
          "name": "owner",
          "type": "address"
        },
        {
          "indexed": false,
          "internalType": "uint64[]",
          "name": "operatorIds",
          "type": "uint64[]"
        },
        {
          "indexed": false,
          "internalType": "uint256",
          "name": "value",
          "type": "uint256"
        },
        {
          "components": [
            {
              "internalType": "uint32",
              "name": "validatorCount",
              "type": "uint32"
            },
            {
              "internalType": "uint64",
              "name": "networkFeeIndex",
              "type": "uint64"
            },
            {
              "internalType": "uint64",
              "name": "index",
              "type": "uint64"
            },
            {
              "internalType": "bool",
              "name": "active",
              "type": "bool"
            },
            {
              "internalType": "uint256",
              "name": "balance",
              "type": "uint256"
            }
          ],
          "indexed": false,
          "internalType": "struct ISSVNetworkCore.Cluster",
          "name": "cluster",
          "type": "tuple"
        }
      ],
      "name": "ClusterWithdrawn",
      "type": "event"
    },
    {
      "anonymous": false,
      "inputs": [
        {
          "indexed": true,
          "internalType": "address",
          "name": "owner",
          "type": "address"
        },
        {
          "indexed": false,
          "internalType": "uint64[]",
          "name": "operatorIds",
          "type": "uint64[]"
        },
        {
          "indexed": false,
          "internalType": "bytes",
          "name": "publicKey",
          "type": "bytes"
        },
        {
          "indexed": false,
          "internalType": "bytes",
          "name": "shares",
          "type": "bytes"
        },
        {
          "components": [
            {
              "internalType": "uint32",
              "name": "validatorCount",
              "type": "uint32"
            },
            {
              "internalType": "uint64",
              "name": "networkFeeIndex",
              "type": "uint64"
            },
            {
              "internalType": "uint64",
              "name": "index",
              "type": "uint64"
            },
            {
              "internalType": "bool",
              "name": "active",
              "type": "bool"
            },
            {
              "internalType": "uint256",
              "name": "balance",
              "type": "uint256"
            }
          ],
          "indexed": false,
          "internalType": "struct ISSVNetworkCore.Cluster",
          "name": "cluster",
          "type": "tuple"
        }
      ],
      "name": "ValidatorAdded",
      "type": "event"
    },
    {
      "anonymous": false,
      "inputs": [
        {
          "indexed": true,
          "internalType": "address",
          "name": "owner",
          "type": "address"
        },
        {
          "indexed": false,
          "internalType": "uint64[]",
          "name": "operatorIds",
          "type": "uint64[]"
        },
        {
          "indexed": false,
          "internalType": "bytes",
          "name": "publicKey",
          "type": "bytes"
        }
      ],
      "name": "ValidatorExited",
      "type": "event"
    },
    {
      "anonymous": false,
      "inputs": [
        {
          "indexed": true,
          "internalType": "address",
          "name": "owner",
          "type": "address"
        },
        {
          "indexed": false,
          "internalType": "uint64[]",
          "name": "operatorIds",
          "type": "uint64[]"
        },
        {
          "indexed": false,
          "internalType": "bytes",
          "name": "publicKey",
          "type": "bytes"
        },
        {
          "components": [
            {
              "internalType": "uint32",
              "name": "validatorCount",
              "type": "uint32"
            },
            {
              "internalType": "uint64",
              "name": "networkFeeIndex",
              "type": "uint64"
            },
            {
              "internalType": "uint64",
              "name": "index",
              "type": "uint64"
            },
            {
              "internalType": "bool",
              "name": "active",
              "type": "bool"
            },
            {
              "internalType": "uint256",
              "name": "balance",
              "type": "uint256"
            }
          ],
          "indexed": false,
          "internalType": "struct ISSVNetworkCore.Cluster",
          "name": "cluster",
          "type": "tuple"
        }
      ],
      "name": "ValidatorRemoved",
      "type": "event"
    },
    {
      "inputs": [
        {
          "internalType": "address",
          "name": "clusterOwner",
          "type": "address"
        },
        {
          "internalType": "uint64[]",
          "name": "operatorIds",
          "type": "uint64[]"
        },
        {
          "internalType": "uint256",
          "name": "amount",
          "type": "uint256"
        },
        {
          "components": [
            {
              "internalType": "uint32",
              "name": "validatorCount",
              "type": "uint32"
            },
            {
              "internalType": "uint64",
              "name": "networkFeeIndex",
              "type": "uint64"
            },
            {
              "internalType": "uint64",
              "name": "index",
              "type": "uint64"
            },
            {
              "internalType": "bool",
              "name": "active",
              "type": "bool"
            },
            {
              "internalType": "uint256",
              "name": "balance",
              "type": "uint256"
            }
          ],
          "internalType": "struct ISSVNetworkCore.Cluster",
          "name": "cluster",
          "type": "tuple"
        }
      ],
      "name": "deposit",
      "outputs": [],
      "stateMutability": "nonpayable",
      "type": "function"
    },
    {
      "inputs": [
        {
          "internalType": "bytes",
          "name": "publicKey",
          "type": "bytes"
        },
        {
          "internalType": "uint64[]",
          "name": "operatorIds",
          "type": "uint64[]"
        }
      ],
      "name": "exitValidator",
      "outputs": [],
      "stateMutability": "nonpayable",
      "type": "function"
    },
    {
      "inputs": [
        {
          "internalType": "address",
          "name": "clusterOwner",
          "type": "address"
        },
        {
          "internalType": "uint64[]",
          "name": "operatorIds",
          "type": "uint64[]"
        },
        {
          "components": [
            {
              "internalType": "uint32",
              "name": "validatorCount",
              "type": "uint32"
            },
            {
              "internalType": "uint64",
              "name": "networkFeeIndex",
              "type": "uint64"
            },
            {
              "internalType": "uint64",
              "name": "index",
              "type": "uint64"
            },
            {
              "internalType": "bool",
              "name": "active",
              "type": "bool"
            },
            {
              "internalType": "uint256",
              "name": "balance",
              "type": "uint256"
            }
          ],
          "internalType": "struct ISSVNetworkCore.Cluster",
          "name": "cluster",
          "type": "tuple"
        }
      ],
      "name": "liquidate",
      "outputs": [],
      "stateMutability": "nonpayable",
      "type": "function"
    },
    {
      "inputs": [
        {
          "internalType": "uint64[]",
          "name": "operatorIds",
          "type": "uint64[]"
        },
        {
          "internalType": "uint256",
          "name": "amount",
          "type": "uint256"
        },
        {
          "components": [
            {
              "internalType": "uint32",
              "name": "validatorCount",
              "type": "uint32"
            },
            {
              "internalType": "uint64",
              "name": "networkFeeIndex",
              "type": "uint64"
            },
            {
              "internalType": "uint64",
              "name": "index",
              "type": "uint64"
            },
            {
              "internalType": "bool",
              "name": "active",
              "type": "bool"
            },
            {
              "internalType": "uint256",
              "name": "balance",
              "type": "uint256"
            }
          ],
          "internalType": "struct ISSVNetworkCore.Cluster",
          "name": "cluster",
          "type": "tuple"
        }
      ],
      "name": "reactivate",
      "outputs": [],
      "stateMutability": "nonpayable",
      "type": "function"
    },
    {
      "inputs": [
        {
          "internalType": "bytes",
          "name": "publicKey",
          "type": "bytes"
        },
        {
          "internalType": "uint64[]",
          "name": "operatorIds",
          "type": "uint64[]"
        },
        {
          "internalType": "bytes",
          "name": "sharesData",
          "type": "bytes"
        },
        {
          "internalType": "uint256",
          "name": "amount",
          "type": "uint256"
        },
        {
          "components": [
            {
              "internalType": "uint32",
              "name": "validatorCount",
              "type": "uint32"
            },
            {
              "internalType": "uint64",
              "name": "networkFeeIndex",
              "type": "uint64"
            },
            {
              "internalType": "uint64",
              "name": "index",
              "type": "uint64"
            },
            {
              "internalType": "bool",
              "name": "active",
              "type": "bool"
            },
            {
              "internalType": "uint256",
              "name": "balance",
              "type": "uint256"
            }
          ],
          "internalType": "struct ISSVNetworkCore.Cluster",
          "name": "cluster",
          "type": "tuple"
        }
      ],
      "name": "registerValidator",
      "outputs": [],
      "stateMutability": "nonpayable",
      "type": "function"
    },
    {
      "inputs": [
        {
          "internalType": "bytes[]",
          "name": "publicKeys",
          "type": "bytes[]"
        },
        {
          "internalType": "uint64[]",
          "name": "operatorIds",
          "type": "uint64[]"
        },
        {
          "internalType": "bytes[]",
          "name": "sharesData",
          "type": "bytes[]"
        },
        {
          "internalType": "uint256",
          "name": "amount",
          "type": "uint256"
        },
        {
          "components": [
            {
              "internalType": "uint32",
              "name": "validatorCount",
              "type": "uint32"
            },
            {
              "internalType": "uint64",
              "name": "networkFeeIndex",
              "type": "uint64"
            },
            {
              "internalType": "uint64",
              "name": "index",
              "type": "uint64"
            },
            {
              "internalType": "bool",
              "name": "active",
              "type": "bool"
            },
            {
              "internalType": "uint256",
              "name": "balance",
              "type": "uint256"
            }
          ],
          "internalType": "struct ISSVNetworkCore.Cluster",
          "name": "cluster",
          "type": "tuple"
        }
      ],
      "name": "registerValidatorBulk",
      "outputs": [],
      "stateMutability": "nonpayable",
      "type": "function"
    },
    {
      "inputs": [
        {
          "internalType": "bytes",
          "name": "publicKey",
          "type": "bytes"
        },
        {
          "internalType": "uint64[]",
          "name": "operatorIds",
          "type": "uint64[]"
        },
        {
          "components": [
            {
              "internalType": "uint32",
              "name": "validatorCount",
              "type": "uint32"
            },
            {
              "internalType": "uint64",
              "name": "networkFeeIndex",
              "type": "uint64"
            },
            {
              "internalType": "uint64",
              "name": "index",
              "type": "uint64"
            },
            {
              "internalType": "bool",
              "name": "active",
              "type": "bool"
            },
            {
              "internalType": "uint256",
              "name": "balance",
              "type": "uint256"
            }
          ],
          "internalType": "struct ISSVNetworkCore.Cluster",
          "name": "cluster",
          "type": "tuple"
        }
      ],
      "name": "removeValidator",
      "outputs": [],
      "stateMutability": "nonpayable",
      "type": "function"
    },
    {
      "inputs": [
        {
          "internalType": "uint64[]",
          "name": "operatorIds",
          "type": "uint64[]"
        },
        {
          "internalType": "uint256",
          "name": "amount",
          "type": "uint256"
        },
        {
          "components": [
            {
              "internalType": "uint32",
              "name": "validatorCount",
              "type": "uint32"
            },
            {
              "internalType": "uint64",
              "name": "networkFeeIndex",
              "type": "uint64"
            },
            {
              "internalType": "uint64",
              "name": "index",
              "type": "uint64"
            },
            {
              "internalType": "bool",
              "name": "active",
              "type": "bool"
            },
            {
              "internalType": "uint256",
              "name": "balance",
              "type": "uint256"
            }
          ],
          "internalType": "struct ISSVNetworkCore.Cluster",
          "name": "cluster",
          "type": "tuple"
        }
      ],
      "name": "withdraw",
      "outputs": [],
      "stateMutability": "nonpayable",
      "type": "function"
    }
  ],
  "bytecode": "0x608060405234801561001057600080fd5b506135f8806100206000396000f3fe608060405234801561001057600080fd5b50600436106100885760003560e01c8063686e682c1161005b578063686e682c146100db578063bc26e7e5146100ee578063bf0f2fb214610101578063efad1da41461011457600080fd5b806306e8fb9c1461008d57806312b3fc19146100a25780633877322b146100b55780635fec6dd0146100c8575b600080fd5b6100a061009b366004612a84565b610127565b005b6100a06100b0366004612b79565b610984565b6100a06100c3366004612bfb565b610af5565b6100a06100d6366004612c67565b610b64565b6100a06100e9366004612c67565b610da1565b6100a06100fc366004612ce9565b61106b565b6100a061010f366004612d4d565b611152565b6100a0610122366004612da8565b61137f565b6000610131611cb3565b9050600061013d611ce7565b875190915060048110806101515750600d81115b806101675750610162600382612e30565b600114155b1561019e576040517f3818622400000000000000000000000000000000000000000000000000000000815260040160405180910390fd5b603089146101d8576040517f637297a400000000000000000000000000000000000000000000000000000000815260040160405180910390fd5b60008a8a336040516020016101ef93929190612e6b565b60408051601f1981840301815291815281516020928301206000818152928790529120549091501561024d576040517f8d09a73e00000000000000000000000000000000000000000000000000000000815260040160405180910390fd5b6001896040516020016102609190612ee1565b60408051601f1981840301815282825280516020918201206000958652888252918520939091179092556102989133918c9101612ef4565b60408051601f1981840301815291815281516020928301206000818152600188019093529120549091508061035857855163ffffffff161515806102e95750602086015167ffffffffffffffff1615155b806103015750604086015167ffffffffffffffff1615155b8061030f5750608086015115155b8061031c57508560600151155b15610353576040517f12e04c8700000000000000000000000000000000000000000000000000000000815260040160405180910390fd5b6103a2565b61036186611d15565b8114610399576040517f12e04c8700000000000000000000000000000000000000000000000000000000815260040160405180910390fd5b6103a286611dd1565b5085856080018181516103b59190612f5a565b90525060608501516000901561085b576000805b848110156108375760008c82815181106103e5576103e5612f6d565b60200260200101519050858260016103fd9190612f5a565b10156104e4578c61040f836001612f5a565b8151811061041f5761041f612f6d565b602002602001015167ffffffffffffffff168167ffffffffffffffff161115610474576040517fdd020e2500000000000000000000000000000000000000000000000000000000815260040160405180910390fd5b8c610480836001612f5a565b8151811061049057610490612f6d565b602002602001015167ffffffffffffffff168167ffffffffffffffff16036104e4576040517fa5a1ff5d00000000000000000000000000000000000000000000000000000000815260040160405180910390fd5b67ffffffffffffffff808216600090815260068a0160209081526040808320815160a081018352815463ffffffff808216835264010000000080830489168488015273ffffffffffffffffffffffffffffffffffffffff6c01000000000000000000000000938490041684870152600185015460ff16151560608086019190915286519081018752600290950154808316865290810489169685019690965294049095169181019190915260808401819052511690036105d0576040517f961e3e8c00000000000000000000000000000000000000000000000000000000815260040160405180910390fd5b80606001511561066a5767ffffffffffffffff8216600090815260048a01602052604090205473ffffffffffffffffffffffffffffffffffffffff168015801590610631575073ffffffffffffffffffffffffffffffffffffffff81163314155b15610668576040517f8c6e5d7100000000000000000000000000000000000000000000000000000000815260040160405180910390fd5b505b61067381611e0f565b875481516c0100000000000000000000000090910463ffffffff1690829061069a90612f9c565b63ffffffff169081905211156106dc576040517f6df5ab7600000000000000000000000000000000000000000000000000000000815260040160405180910390fd5b6080810151602001516106ef9085612fbf565b93508060200151856107019190612fbf565b67ffffffffffffffff928316600090815260068b01602090815260409182902084518154868401518786015163ffffffff9384167fffffffffffffffffffffffffffffffffffffffff00000000000000000000000093841617640100000000928b168302176bffffffffffffffffffffffff166c0100000000000000000000000073ffffffffffffffffffffffffffffffffffffffff90921682021785556060890151600180870180547fffffffffffffffffffffffffffffffffffffffffffffffffffffffffffffff001692151592909217909155608090990151805160029096018054978201519190980151959094169590921694909417918816909302177fffffffffffffffffffffffff0000000000000000ffffffffffffffffffffffff1695160293909317909255909350016103c9565b5061084d8161084587611ea1565b899190611f11565b61085985600180611f36565b505b8551869061086890612f9c565b63ffffffff908116909152845460018601546108be928992859267ffffffffffffffff70010000000000000000000000000000000092839004811693680100000000000000008304821693909204169061200d16565b156108f5576040517ff4d678b800000000000000000000000000000000000000000000000000000000815260040160405180910390fd5b6108fe86611d15565b6000838152600187016020526040902055861561091e5761091e87612094565b3373ffffffffffffffffffffffffffffffffffffffff167f48a3ea0796746043948f6341d17ff8200937b99262a0b48c2663b951ed7114e58b8e8e8d8d8c60405161096e96959493929190613049565b60405180910390a2505050505050505050505050565b600061098e611cb3565b9050600061099f8787878786612174565b905060006109e533878780806020026020016040519081016040528093929190818152602001838360200280828437600092019190915250899493925088915050612283565b9050836060015115610a685760006109fb611ce7565b90506000610a4088888080602002602001604051908101604052809392919081815260200183836020028082843760009201829052509250600191508990508661234e565b509050610a5881610a5084611ea1565b889190611f11565b610a658260006001611f36565b50505b83518490610a75906130da565b63ffffffff169052600082815260208490526040812055610a9584611d15565b600082815260018501602052604090819020919091555133907fccf4370403e5fbbde0cd3f13426479dcd8a5916b05db424b7a2c04978cf8ce6e90610ae390899089908d908d908b90613155565b60405180910390a25050505050505050565b610b0984848484610b04611cb3565b612174565b503373ffffffffffffffffffffffffffffffffffffffff167fb4b20ffb2eb1f020be3df600b2287914f50c07003526d3a9d89a9dd12351828c83838787604051610b5694939291906131d9565b60405180910390a250505050565b6000610b6e611cb3565b90506000610bb433878780806020026020016040519081016040528093929190818152602001838360200280828437600092019190915250889493925087915050612283565b9050826060015115610bf2576040517f3babafd200000000000000000000000000000000000000000000000000000000815260040160405180910390fd5b6000610bfc611ce7565b9050600080610c44898980806020026020016040519081016040528093929190818152602001838360200280828437600092019190915250508951600192509050888761234e565b915091508686608001818151610c5a9190612f5a565b9052506001606087015267ffffffffffffffff82166040870152610c7d83611ea1565b67ffffffffffffffff1660208701528551610c9c908490600190611f36565b82546001840154610ce4918891849167ffffffffffffffff7001000000000000000000000000000000009182900481169268010000000000000000810482169290041661200d565b15610d1b576040517ff4d678b800000000000000000000000000000000000000000000000000000000815260040160405180910390fd5b610d2486611d15565b60008581526001870160205260409020558615610d4457610d4487612094565b3373ffffffffffffffffffffffffffffffffffffffff167fc803f8c01343fcdaf32068f4c283951623ef2b3fa0c547551931356f456b68598a8a89604051610d8e93929190613200565b60405180910390a2505050505050505050565b6000610dab611cb3565b90506000610df133878780806020026020016040519081016040528093929190818152602001838360200280828437600092019190915250889493925087915050612283565b9050610dfc83611dd1565b6000610e06611ce7565b90506000846060015115610f0b57600087815b81811015610efa576000610e2b611cb3565b60060160008d8d85818110610e4257610e42612f6d565b9050602002016020810190610e579190613266565b67ffffffffffffffff9081168252602082019290925260400160002080546002820154919350640100000000900490911690610e999063ffffffff1643613281565b610ea391906132a2565b6002820154610ec49190640100000000900467ffffffffffffffff16612fbf565b610ece9085612fbf565b8154909450610eef90640100000000900467ffffffffffffffff1686612fbf565b945050600101610e19565b5050610f0981610a5085611ea1565b505b8585608001511015610f49576040517ff4d678b800000000000000000000000000000000000000000000000000000000815260040160405180910390fd5b8585608001818151610f5b91906132ce565b90525060608501518015610f755750845163ffffffff1615155b8015610fc4575081546001830154610fc4918791849167ffffffffffffffff7001000000000000000000000000000000009182900481169268010000000000000000810482169290041661200d565b15610ffb576040517ff4d678b800000000000000000000000000000000000000000000000000000000815260040160405180910390fd5b61100485611d15565b600084815260018601602052604090205561101f33876124e2565b3373ffffffffffffffffffffffffffffffffffffffff167f39d1320bbda24947e77f3560661323384aa0a1cb9d5e040e617e5cbf50b6dbe089898989604051610ae394939291906132e1565b6000611075611cb3565b905060006110bb87878780806020026020016040519081016040528093929190818152602001838360200280828437600092019190915250889493925087915050612283565b905083836080018181516110cf9190612f5a565b9052506110db83611d15565b60008281526001840160205260409020556110f584612094565b8673ffffffffffffffffffffffffffffffffffffffff167f2bac1912f2481d12f0df08647c06bee174967c62d3a03cbc078eb215dc1bd9a28787878760405161114194939291906132e1565b60405180910390a250505050505050565b600061115c611cb3565b905060006111a286868680806020026020016040519081016040528093929190818152602001838360200280828437600092019190915250889493925087915050612283565b90506111ad83611dd1565b60006111b7611ce7565b90506000806111fe88888080602002602001604051908101604052809392919081815260200183836020028082843760009201829052508b5190935091508990508761234e565b915091506112178261120f85611ea1565b8891906125c2565b600073ffffffffffffffffffffffffffffffffffffffff8a163314801590611284575083546001850154611282918991859167ffffffffffffffff7001000000000000000000000000000000009182900481169268010000000000000000810482169290041661200d565b155b156112bb576040517f60300a8d00000000000000000000000000000000000000000000000000000000815260040160405180910390fd5b86516112cb908590600090611f36565b6080870151156112e2575060808601805160009091525b60006040880181905260208801819052606088015261130087611d15565b600086815260018801602052604090205580156113215761132133826124e2565b8973ffffffffffffffffffffffffffffffffffffffff167f1fce24c373e07f89214e9187598635036111dbb363e99f4ce498488cdc66e6888a8a8a60405161136b93929190613200565b60405180910390a250505050505050505050565b6000611389611cb3565b90506000611395611ce7565b875190915060048110806113a95750600d81115b806113bf57506113ba600382612e30565b600114155b156113f6576040517f3818622400000000000000000000000000000000000000000000000000000000815260040160405180910390fd5b6000338960405160200161140b929190612ef4565b60408051601f198184030181529181528151602092830120600081815260018801909352912054909150806114cb57855163ffffffff1615158061145c5750602086015167ffffffffffffffff1615155b806114745750604086015167ffffffffffffffff1615155b806114825750608086015115155b8061148f57508560600151155b156114c6576040517f12e04c8700000000000000000000000000000000000000000000000000000000815260040160405180910390fd5b611515565b6114d486611d15565b811461150c576040517f12e04c8700000000000000000000000000000000000000000000000000000000815260040160405180910390fd5b61151586611dd1565b5085856080018181516115289190612f5a565b90525060005b8a811015611c7c5760008c8c8381811061154a5761154a612f6d565b905060200281019061155c919061334d565b8080601f01602080910402602001604051908101604052809392919081815260200183838082843760009201829052509394508d92508c91508590508181106115a7576115a7612f6d565b90506020028101906115b9919061334d565b8080601f016020809104026020016040519081016040528093929190818152602001838380828437600092019190915250508451929350505060301461162b576040517f637297a400000000000000000000000000000000000000000000000000000000815260040160405180910390fd5b600082336040516020016116409291906133d6565b60408051601f1981840301815291815281516020928301206000818152928b90529120549091501561169e576040517f8d09a73e00000000000000000000000000000000000000000000000000000000815260040160405180910390fd5b60018d6040516020016116b19190612ee1565b60408051601f1981840301815291815281516020928301206000948552918b9052832091179055606089015115611b78576000805b87811015611b545760008f828151811061170257611702612f6d565b602002602001015190508882600161171a9190612f5a565b1015611801578f61172c836001612f5a565b8151811061173c5761173c612f6d565b602002602001015167ffffffffffffffff168167ffffffffffffffff161115611791576040517fdd020e2500000000000000000000000000000000000000000000000000000000815260040160405180910390fd5b8f61179d836001612f5a565b815181106117ad576117ad612f6d565b602002602001015167ffffffffffffffff168167ffffffffffffffff1603611801576040517fa5a1ff5d00000000000000000000000000000000000000000000000000000000815260040160405180910390fd5b67ffffffffffffffff808216600090815260068d0160209081526040808320815160a081018352815463ffffffff808216835264010000000080830489168488015273ffffffffffffffffffffffffffffffffffffffff6c01000000000000000000000000938490041684870152600185015460ff16151560608086019190915286519081018752600290950154808316865290810489169685019690965294049095169181019190915260808401819052511690036118ed576040517f961e3e8c00000000000000000000000000000000000000000000000000000000815260040160405180910390fd5b8060600151156119875767ffffffffffffffff8216600090815260048d01602052604090205473ffffffffffffffffffffffffffffffffffffffff16801580159061194e575073ffffffffffffffffffffffffffffffffffffffff81163314155b15611985576040517f8c6e5d7100000000000000000000000000000000000000000000000000000000815260040160405180910390fd5b505b61199081611e0f565b8a5481516c0100000000000000000000000090910463ffffffff169082906119b790612f9c565b63ffffffff169081905211156119f9576040517f6df5ab7600000000000000000000000000000000000000000000000000000000815260040160405180910390fd5b608081015160200151611a0c9085612fbf565b9350806020015185611a1e9190612fbf565b67ffffffffffffffff928316600090815260068e01602090815260409182902084518154868401518786015163ffffffff9384167fffffffffffffffffffffffffffffffffffffffff00000000000000000000000093841617640100000000928b168302176bffffffffffffffffffffffff166c0100000000000000000000000073ffffffffffffffffffffffffffffffffffffffff90921682021785556060890151600180870180547fffffffffffffffffffffffffffffffffffffffffffffffffffffffffffffff001692151592909217909155608090990151805160029096018054978201519190980151959094169590921694909417918816909302177fffffffffffffffffffffffff0000000000000000ffffffffffffffffffffffff1695160293909317909255909350016116e6565b50611b6a81611b628a611ea1565b8c9190611f11565b611b7688600180611f36565b505b88518990611b8590612f9c565b63ffffffff90811690915287546001890154611bdb928c92859267ffffffffffffffff70010000000000000000000000000000000092839004811693680100000000000000008304821693909204169061200d16565b15611c12576040517ff4d678b800000000000000000000000000000000000000000000000000000000815260040160405180910390fd5b3373ffffffffffffffffffffffffffffffffffffffff167f48a3ea0796746043948f6341d17ff8200937b99262a0b48c2663b951ed7114e58e85858d604051611c5e949392919061344c565b60405180910390a25050508080611c74906134db565b91505061152e565b50611c8685611d15565b60008281526001860160205260409020558515611ca657611ca686612094565b5050505050505050505050565b600080611ce160017fd56c4f4aab8ca22f9fde432777379f436593c6027698a6995e2daea890bed1056132ce565b92915050565b600080611ce160017f0f1d85405047bdb6b0a60e27531f52a1f7a948613527b9b83a7552558207aa166132ce565b8051602080830151604080850151608086015160608701519251600096611db496909594910160e09590951b7fffffffff0000000000000000000000000000000000000000000000000000000016855260c093841b7fffffffffffffffff00000000000000000000000000000000000000000000000090811660048701529290931b909116600c8401526014830152151560f81b603482015260350190565b604051602081830303815290604052805190602001209050919050565b8060600151611e0c576040517f95a0cf3300000000000000000000000000000000000000000000000000000000815260040160405180910390fd5b50565b602081015160808201515160009190611e289043613513565b63ffffffff16611e3891906132a2565b9050808260800151602001818151611e509190612fbf565b67ffffffffffffffff169052508151611e6f9063ffffffff16826132a2565b8260800151604001818151611e849190612fbf565b67ffffffffffffffff16905250506080015163ffffffff43169052565b805460009067ffffffffffffffff70010000000000000000000000000000000082041690611ed59063ffffffff16436132ce565b611edf91906132a2565b8254611ce191907801000000000000000000000000000000000000000000000000900467ffffffffffffffff16612fbf565b611f1c8383836125c2565b67ffffffffffffffff918216604084015216602090910152565b611f3f83612673565b81611f8957825481908490600490611f66908490640100000000900463ffffffff16613513565b92506101000a81548163ffffffff021916908363ffffffff160217905550505050565b825463ffffffff9082908590600490611fad90849064010000000090048616613530565b92506101000a81548163ffffffff021916908363ffffffff160217905563ffffffff161115612008576040517f91aa301700000000000000000000000000000000000000000000000000000000815260040160405180910390fd5b505050565b845160009063ffffffff161561208b576120308267ffffffffffffffff166126f2565b866080015110156120435750600161208b565b855160009063ffffffff166120588688612fbf565b61206290866132a2565b61206c91906132a2565b90506120818167ffffffffffffffff166126f2565b8760800151109150505b95945050505050565b61209c611cb3565b600701546040517f23b872dd0000000000000000000000000000000000000000000000000000000081523360048201523060248201526044810183905273ffffffffffffffffffffffffffffffffffffffff909116906323b872dd906064016020604051808303816000875af115801561211a573d6000803e3d6000fd5b505050506040513d601f19601f8201168201806040525081019061213e919061354d565b611e0c576040517f045c4b0200000000000000000000000000000000000000000000000000000000815260040160405180910390fd5b600085853360405160200161218b93929190612e6b565b60408051601f198184030181529181528151602092830120600081815292859052912054909150806121e9576040517fe51315d200000000000000000000000000000000000000000000000000000000815260040160405180910390fd5b6040517ffffffffffffffffffffffffffffffffffffffffffffffffffffffffffffffffe906000908290612223908990899060200161356a565b604051602081830303815290604052805190602001201690508082841614612277576040517f2feda3c100000000000000000000000000000000000000000000000000000000815260040160405180910390fd5b50505095945050505050565b6000808484604051602001612299929190612ef4565b60405160208183030381529060405280519060200120905060006122bc87611d15565b600083815260018601602052604090205490915080612307576040517f185e2b1600000000000000000000000000000000000000000000000000000000815260040160405180910390fd5b818114612340576040517f12e04c8700000000000000000000000000000000000000000000000000000000815260040160405180910390fd5b50909150505b949350505050565b84516000908190815b818110156124d657600089828151811061237357612373612f6d565b60209081029190910181015167ffffffffffffffff8116600090815260068a01909252604090912060028101549192509063ffffffff16156124a6576123b88161270b565b896123fa578054899082906000906123d790849063ffffffff16613513565b92506101000a81548163ffffffff021916908363ffffffff160217905550612485565b8654815463ffffffff6c010000000000000000000000009092048216918b91849160009161242a91859116613530565b92506101000a81548163ffffffff021916908363ffffffff160217905563ffffffff161115612485576040517f6df5ab7600000000000000000000000000000000000000000000000000000000815260040160405180910390fd5b80546124a390640100000000900467ffffffffffffffff1686612fbf565b94505b60028101546124c790640100000000900467ffffffffffffffff1687612fbf565b95508260010192505050612357565b50509550959350505050565b6124ea611cb3565b600701546040517fa9059cbb00000000000000000000000000000000000000000000000000000000815273ffffffffffffffffffffffffffffffffffffffff8481166004830152602482018490529091169063a9059cbb906044016020604051808303816000875af1158015612564573d6000803e3d6000fd5b505050506040513d601f19601f82011682018060405250810190612588919061354d565b6125be576040517f045c4b0200000000000000000000000000000000000000000000000000000000815260040160405180910390fd5b5050565b8251602084015160009163ffffffff16906125dd9084613281565b6125e791906132a2565b9050600081856000015163ffffffff168660400151866126079190613281565b61261191906132a2565b61261b9190612fbf565b905084608001516126358267ffffffffffffffff166126f2565b116126615761264d8167ffffffffffffffff166126f2565b856080015161265c91906132ce565b612664565b60005b60809095019490945250505050565b61267c81612830565b6001820180547fffffffffffffffffffffffffffffffffffffffffffffffff00000000000000001667ffffffffffffffff9290921691909117905580547fffffffffffffffffffffffffffffffffffffffff00000000ffffffffffffffff16680100000000000000004363ffffffff1602179055565b6000611ce16298968067ffffffffffffffff84166135ab565b80546002820154600091640100000000900467ffffffffffffffff16906127389063ffffffff1643613513565b63ffffffff1661274891906132a2565b6002830180549192508291600490612773908490640100000000900467ffffffffffffffff16612fbf565b825467ffffffffffffffff9182166101009390930a92830291909202199091161790555081546127a99063ffffffff16826132a2565b600283018054600c906127d79084906c01000000000000000000000000900467ffffffffffffffff16612fbf565b82546101009290920a67ffffffffffffffff818102199093169190921691909102179055505060020180547fffffffffffffffffffffffffffffffffffffffffffffffffffffffff00000000164363ffffffff16179055565b805460009063ffffffff640100000000820481169167ffffffffffffffff7001000000000000000000000000000000008204169161287b916801000000000000000090041643613281565b61288591906132a2565b61288f91906132a2565b6001830154611ce1919067ffffffffffffffff16612fbf565b60008083601f8401126128ba57600080fd5b50813567ffffffffffffffff8111156128d257600080fd5b6020830191508360208285010111156128ea57600080fd5b9250929050565b7f4e487b7100000000000000000000000000000000000000000000000000000000600052604160045260246000fd5b803567ffffffffffffffff8116811461293857600080fd5b919050565b600082601f83011261294e57600080fd5b8135602067ffffffffffffffff8083111561296b5761296b6128f1565b8260051b604051601f19603f83011681018181108482111715612990576129906128f1565b6040529384528581018301938381019250878511156129ae57600080fd5b83870191505b848210156129d4576129c582612920565b835291830191908301906129b4565b979650505050505050565b8015158114611e0c57600080fd5b600060a082840312156129ff57600080fd5b60405160a0810181811067ffffffffffffffff82111715612a2257612a226128f1565b604052905080823563ffffffff81168114612a3c57600080fd5b8152612a4a60208401612920565b6020820152612a5b60408401612920565b60408201526060830135612a6e816129df565b6060820152608092830135920191909152919050565b6000806000806000806000610120888a031215612aa057600080fd5b873567ffffffffffffffff80821115612ab857600080fd5b612ac48b838c016128a8565b909950975060208a0135915080821115612add57600080fd5b612ae98b838c0161293d565b965060408a0135915080821115612aff57600080fd5b50612b0c8a828b016128a8565b90955093505060608801359150612b268960808a016129ed565b905092959891949750929550565b60008083601f840112612b4657600080fd5b50813567ffffffffffffffff811115612b5e57600080fd5b6020830191508360208260051b85010111156128ea57600080fd5b600080600080600060e08688031215612b9157600080fd5b853567ffffffffffffffff80821115612ba957600080fd5b612bb589838a016128a8565b90975095506020880135915080821115612bce57600080fd5b50612bdb88828901612b34565b9094509250612bef905087604088016129ed565b90509295509295909350565b60008060008060408587031215612c1157600080fd5b843567ffffffffffffffff80821115612c2957600080fd5b612c35888389016128a8565b90965094506020870135915080821115612c4e57600080fd5b50612c5b87828801612b34565b95989497509550505050565b60008060008060e08587031215612c7d57600080fd5b843567ffffffffffffffff811115612c9457600080fd5b612ca087828801612b34565b90955093505060208501359150612cba86604087016129ed565b905092959194509250565b803573ffffffffffffffffffffffffffffffffffffffff8116811461293857600080fd5b60008060008060006101008688031215612d0257600080fd5b612d0b86612cc5565b9450602086013567ffffffffffffffff811115612d2757600080fd5b612d3388828901612b34565b90955093505060408601359150612bef87606088016129ed565b60008060008060e08587031215612d6357600080fd5b612d6c85612cc5565b9350602085013567ffffffffffffffff811115612d8857600080fd5b612d9487828801612b34565b9094509250612cba905086604087016129ed565b6000806000806000806000610120888a031215612dc457600080fd5b873567ffffffffffffffff80821115612ddc57600080fd5b612de88b838c01612b34565b909950975060208a0135915080821115612e0157600080fd5b612e0d8b838c0161293d565b965060408a0135915080821115612e2357600080fd5b50612b0c8a828b01612b34565b600082612e66577f4e487b7100000000000000000000000000000000000000000000000000000000600052601260045260246000fd5b500690565b8284823760609190911b7fffffffffffffffffffffffffffffffffffffffff000000000000000000000000169101908152601401919050565b60008151602080840160005b83811015612ed657815167ffffffffffffffff1687529582019590820190600101612eb0565b509495945050505050565b6000612eed8284612ea4565b9392505050565b7fffffffffffffffffffffffffffffffffffffffff0000000000000000000000008360601b16815260006123466014830184612ea4565b7f4e487b7100000000000000000000000000000000000000000000000000000000600052601160045260246000fd5b80820180821115611ce157611ce1612f2b565b7f4e487b7100000000000000000000000000000000000000000000000000000000600052603260045260246000fd5b600063ffffffff808316818103612fb557612fb5612f2b565b6001019392505050565b67ffffffffffffffff818116838216019080821115612fe057612fe0612f2b565b5092915050565b805180835260209283019260009190808401838315612ed657815167ffffffffffffffff1687529582019590820190600101612eb0565b818352818160208501375060006020828401015260006020601f19601f840116840101905092915050565b600061010080835261305d8184018a612fe7565b9050828103602084015261307281888a61301e565b9050828103604084015261308781868861301e565b9150506129d4606083018463ffffffff8151168252602081015167ffffffffffffffff80821660208501528060408401511660408501525050606081015115156060830152608081015160808301525050565b600063ffffffff8216806130f0576130f0612f2b565b7fffffffffffffffffffffffffffffffffffffffffffffffffffffffffffffffff0192915050565b8183526000602080850194508260005b85811015612ed65767ffffffffffffffff61314283612920565b1687529582019590820190600101613128565b60e08152600061316960e083018789613118565b828103602084015261317c81868861301e565b9150506131cf604083018463ffffffff8151168252602081015167ffffffffffffffff80821660208501528060408401511660408501525050606081015115156060830152608081015160808301525050565b9695505050505050565b6040815260006131ed604083018688613118565b82810360208401526129d481858761301e565b60c08152600061321460c083018587613118565b9050612346602083018463ffffffff8151168252602081015167ffffffffffffffff80821660208501528060408401511660408501525050606081015115156060830152608081015160808301525050565b60006020828403121561327857600080fd5b612eed82612920565b67ffffffffffffffff828116828216039080821115612fe057612fe0612f2b565b67ffffffffffffffff8181168382160280821691908281146132c6576132c6612f2b565b505092915050565b81810381811115611ce157611ce1612f2b565b60e0815260006132f560e083018688613118565b905083602083015261208b604083018463ffffffff8151168252602081015167ffffffffffffffff80821660208501528060408401511660408501525050606081015115156060830152608081015160808301525050565b60008083357fffffffffffffffffffffffffffffffffffffffffffffffffffffffffffffffe184360301811261338257600080fd5b83018035915067ffffffffffffffff82111561339d57600080fd5b6020019150368190038213156128ea57600080fd5b60005b838110156133cd5781810151838201526020016133b5565b50506000910152565b600083516133e88184602088016133b2565b60609390931b7fffffffffffffffffffffffffffffffffffffffff000000000000000000000000169190920190815260140192915050565b600081518084526134388160208601602086016133b2565b601f01601f19169290920160200192915050565b600061010080835261346081840188612fe7565b905082810360208401526134748187613420565b905082810360408401526134888186613420565b91505061208b606083018463ffffffff8151168252602081015167ffffffffffffffff80821660208501528060408401511660408501525050606081015115156060830152608081015160808301525050565b60007fffffffffffffffffffffffffffffffffffffffffffffffffffffffffffffffff820361350c5761350c612f2b565b5060010190565b63ffffffff828116828216039080821115612fe057612fe0612f2b565b63ffffffff818116838216019080821115612fe057612fe0612f2b565b60006020828403121561355f57600080fd5b8151612eed816129df565b60008184825b858110156135a05767ffffffffffffffff61358a83612920565b1683526020928301929190910190600101613570565b509095945050505050565b8082028115828204841417611ce157611ce1612f2b56fea2646970667358221220383e5b535ab4c66931a5b67291f56b5df7e78698ddc3560c24b78b3fd5654b0164736f6c63430008120033",
  "linkReferences": {},
  "deployedLinkReferences": {}
}